:020000021000EC
:10F000001F92CDB7DEB7112484B714BE982F9D7020
:10F0100009F09FD4F0D35E9885E08093810082E070
:10F020008093C00088E18093C10086E08093C20095
:10F0300080E18093C4008EE0C9D3259A26E080E366
:10F040009CEF31E0909385008093840036BBB09BA9
:10F05000FECF1D9AA8952150A9F700E010E0AAD391
:10F06000813479F4A7D3898365D48981823811F4F6
:10F0700082E005C0813811F486E001C083E093D3BB
:10F0800087C0823411F484E103C0853419F485E02B
:10F0900059D47EC0853569F48DD3082F8BD310E009
:10F0A000182B812F881F8827881F8BBF000F111FE7
:10F0B0006EC0863521F484E045D480E0E0CF84360C
:10F0C00091F578D390E0982E882474D3882A72D34F
:10F0D000B82E7401C12CDD24D3946CD3F601819336
:10F0E0006F01F1E0EF1AF108E114F104B1F722D455
:10F0F00085E4B81214C06401C00ED11E7801812CC1
:10F1000099249394EC14FD0409F442C0F401619134
:10F110004F01C7012CD4FFEFEF1AFF0AF3CFB40160
:10F12000C80139D035C0843729F544D390E0D82EB2
:10F13000CC2440D3C82A3ED38983FCD3898178016B
:10F14000853469F4C7010BD42ED381E0C81AD108E5
:10F15000EFEFEE1AFE0AC114D104A1F719C0F701AE
:10F1600087917F0120D3F1E0CF1AD108C114D104D7
:10F17000B1F70EC0853739F4DDD38EE114D387E9BA
:10F1800012D385E07CCF813511F488E01FD3D2D330
:10F1900080E109D364CFCF9323E0FC0127BFE8953A
:10F1A00007B600FCFDCF20E030E0C1E0F901F395A7
:10F1B0004081F901E80FF91FD901AF5FBE4FAC9153
:10F1C00050E05A2B0A01C7BFE89511242E5F3F4F2C
:10F1D0006217730759F725E0FC0127BFE89507B6CA
:10F1E00000FCFDCF81E187BFE895CF9108958EBDEA
:10F1F0000DB407FEFDCF8EB50895429885E0F7DF88
:10F2000080E0F5DF429A81700895CF93C82F66237E
:10F2100021F060E086E0F9DF429AEFDF8111FDCF57
:10F2200042988C2FCF91E3CFCF92DF92EF92FF9253
:10F230006B017C0160E083E0E8DF8E2DD8DF8D2D4F
:10F24000D6DF8C2DD4DF80E0D2DF429AFF90EF90A2
:10F25000DF90CF900895FC012E2F281B261760F415
:10F260004F3F510509F030F42081DA01B3952C931A
:10F270004F5F5F4F3196F0CF089590E030E49817DC
:10F28000D1F02BB123272BB92FEF41EE54E02150C1
:10F2900040405040E1F700C000002BB123272BB9BC
:10F2A0002FEF41EE54E0215040405040E1F700C0C4
:10F2B00000009F5FE4CF08952F923F924F925F929C
:10F2C0006F927F928F929F92AF92BF92CF92DF9276
:10F2D000EF92FF920F931F93CF93DF93CDB7DEB7DB
:10F2E000C854D1090FB6F894DEBF0FBECDBF249627
:10F2F0006CAF7DAF8EAF9FAF249726965FAF4EAFBA
:10F30000269727962FAF27979E012F5F3F4F3AA34F
:10F3100029A380E2D9011D928A95E9F719A61AA6B8
:10F320001BA61CA618AE19AE1AAE1BAE412C512C52
:10F33000320110E02FEF3FEFA9012DA33EA34FA311
:10F3400058A7CC24CA94DC2C76011BAA212C1EA61B
:10F350001DA69E012F5F3F4F3CA32BA329A53AA5D5
:10F360004BA55CA524966CAD7DAD8EAD9FAD24976D
:10F37000261737074807590709F4F0C169A57AA588
:10F380008BA59CA551DF2DA53EA52827922F9295F0
:10F390009227092E969596959025092E969590255B
:10F3A0009770022E232F969507949795302D292735
:10F3B00006949795302529273EA72DA749A55AA53C
:10F3C0006BA57CA55F7166277727452B462B472BBE
:10F3D00021F49BB130E493279BB9113009F484C127
:10F3E00030F0123009F48FC1133039F0C1C18A33C3
:10F3F00009F0BEC111E0212CA4C18A3009F0B8C1C6
:10F40000398085E0830D2812B3C18A8190E0982F5E
:10F4100088272B81822B2C81FE01319630E04E2FE4
:10F420005BA1451B421518F44191340FF8CF3111FF
:10F430009FC1213009F401C138F0223009F42DC1F7
:10F44000243009F43FC194C1A3019201280F391F50
:10F45000411D511DDA01C901032D10E020E030E00B
:10F460000150110921093109080F191F2A1F3B1FDB
:10F47000011540EF140741E02407310508F078C179
:10F4800027965FAD2797552309F42CC1892E9A2E14
:10F49000AB2EBB24F4017727632F522F412F4CAFA3
:10F4A0005DAF6EAF7FAF2CAD3DADAA24BB247A2DEE
:10F4B000692D582D44274FA758AB69AB7AAB182F4D
:10F4C0001195032D011B5FEFC516D506E506F50660
:10F4D00029F48CAA9DAAAEAABFAA04C0CCAADDAA10
:10F4E000EEAAFFAA332061F048AD59AD6AAD7BADFD
:10F4F0004F5F5F4F6F4F7F4F48AF59AF6AAF7BAFE2
:10F50000AC0155276CA97DA98EA99FA986169706DF
:10F51000A806B906E9F4E217F30739F4632DCE0122
:10F52000059699DE75016401DDC0612FCE01059657
:10F5300092DE21E08FA598A9A9A9BAA981509F4F71
:10F54000AF4FBF4F0097A140B10508F055C053C061
:10F55000BE2DAD2D9C2D88274C015D016FEF860ED1
:10F56000911CA11CB11CE217F307E1F421E0811406
:10F57000910471E0A706B10408F420E02BBF60E01D
:10F5800071E028964FAF289729965FAF299703DE41
:10F5900028964FAD289729965FAD2997632DCE0108
:10F5A000059639C021E081149104E1E0AE06B10472
:10F5B00008F420E02BBF60E071E028964FAF289759
:10F5C00029965FAF2997E7DD28964FAD28972996B2
:10F5D0005FAD2997612FCE0105963DDE21E08FA515
:10F5E00098A9A9A9BAA981509F4FAF4FBF4F0097C3
:10F5F000A140B10508F420E02BBF60E071E08FA5C9
:10F6000098A9C9DD40E050E0602F85E090E08C0FC4
:10F610009D1F810F911D1FDECCACDDACEEACFFACAD
:10F620008BB150E485278BB92CA93DA94EA95FA9C0
:10F630002DA33EA34FA358A755C02DA13EA14FA176
:10F6400058A52F3F3F4F4F4F5F4F41F428AD39AD85
:10F650004AAD5BAD232B242B252B49F42DA13EA1D4
:10F660004FA158A52C153D054E055F05D9F1BE2DBE
:10F67000AD2D9C2D8827AC01BD0141505F4F6F4FD0
:10F680007F4F21E0411551056140710508F420E0EC
:10F690002BBF60E071E07FDD25C0892B09F068C0D9
:10F6A0008D8190E0A0E0B0E04424582E692E7A2E9F
:10F6B0008E81482A54E0440C551C661C771C5A95D0
:10F6C000D1F710C0892B09F053C08D8190E0A0E0E4
:10F6D000B0E0BA2FA92F982F88272E81822B3C01CA
:10F6E0005524442410E02DC090ED980F9A3038F145
:10F6F0009FEB980F963018F487538BAB21C08D3059
:10F70000B9F513E01EC090ED980F9A3030F09FEBE2
:10F71000980F963068F599EC980F4FE1421540F13B
:10F72000E1E0F0E0EC0FFD1FE20DF11D2BA950E12F
:10F73000259F900D11249083239411E002C09BAB70
:10F7400012E029A53AA54BA55CA52F5F3F4F4F4F6F
:10F750005F4F29A73AA74BA75CA700CE81E02DA554
:10F760003EA526964EAD5FAD26972417350709F0C6
:10F7700080E0C85BDF4F0FB6F894DEBF0FBECDBF91
:10F78000DF91CF911F910F91FF90EF90DF90CF907D
:10F79000BF90AF909F908F907F906F905F904F90B1
:10F7A0003F902F9008959091C00095FFFCCF8093DB
:10F7B000C60008958091C00087FFFCCF8091C000F3
:10F7C00084FD01C0A8958091C6000895E0E6F0E0B0
:10F7D00098E190838083089561E082E016DD87E000
:10F7E00006DD8FEF04DD8DEF02DD80E000DD429A63
:10F7F00088E0ECDFFFCFCF92DF92EF92FF92CF93C2
:10F80000DF9380E0E3DF2C9A84B1806B84B93A9A6D
:10F81000429A569A5E988CB580658CBD42988FE965
:10F82000E6DC80E0E4DC429A81508E3F08F07BC049
:10F8300061E081E0EADC80E0DADC429A6CEF7FEFA5
:10F8400087E090E0F1DCC82ED12CE12CF12CFE2CCD
:10F85000ED2CDC2CCC246DEF7FEF87E090E0E4DC36
:10F86000C82AFE2CED2CDC2CCC246EEF7FEF87E039
:10F8700090E0DADCC82AFE2CED2CDC2CCC246FEFD7
:10F880007FEF87E090E0D0DCC82A81E1C8168AEBE0
:10F89000D8068DEDE806F10409F045C066EF7FEF6C
:10F8A00087E090E0C1DCC82ED12CE12CF12CFE2C9D
:10F8B000ED2CDC2CCC2467EF7FEF87E090E0B4DC0C
:10F8C000C82AFE2CED2CDC2CCC2468EF7FEF87E0DF
:10F8D00090E0AADCC82AFE2CED2CDC2CCC2469EFAD
:10F8E0007FEF87E090E0A0DCC82A6AEF7FEF87E037
:10F8F00090E09ADCC82FD0E0DC2FCC276BEF7FEFB5
:10F9000087E090E091DCC82B20E0AE01C701B60192
:10F91000D3DC882339F021E0AE01C701B601CCDC8D
:10F9200081115E9859DFDF91CF91FF90EF90DF90CA
:10F93000CF9008953FDF803219F088E047DFFFCF96
:10F9400084E131CFCF93C82F35DFC150E9F7CF9194
:10F95000F1CF282E80E03ADFEE27FF270994F999AE
:10F96000FECF92BD81BDF89A992780B50895262FC4
:10F97000F999FECF1FBA92BD81BD20BD0FB6F89494
:0AF98000FA9AF99A0FBE0196089555
:02FFFE000206F9
:040000031000F000F9
:00000001FF
